:100000000C942A000C9447000C9447000C94470071
:100010000C9447000C9447000C9447000C94470044
:100020000C9447000C9447000C9447000C94470034
:100030000C9447000C9447000C9447000C94470024
:100040000C9447000C9447000C9447000C94470014
:100050000C94470011241FBECFE5D4E0DEBFCDBF16
:1000600010E0A0E6B0E0E2E8F2E002C005900D92F8
:10007000A036B107D9F710E0A0E6B0E001C01D92AC
:10008000A036B107E1F70E948C000C943F010C945C
:10009000000087B38F6087BB88B3807F88BB81B344
:1000A000806381BB82B3806382BB08950E94490054
:1000B000089598B3907F8F70982B98BB089586E031
:1000C0000E945900089589E00E945900089585E032
:1000D0000E94590008958AE00E945900089584E022
:1000E0000E945900089582E00E945900089581E01D
:1000F0000E945900089588E00E945900089580E008
:100100000E94590008958FE00E9459000895F894C4
:100110000E945600789408950E9487000E945F0014
:100120008FE39DE0A3E081509040A040E1F700C044
:1001300000000E947F008FE59AEEA0E08150904081
:10014000A040E1F700C000000E9463008FE39DE043
:10015000A3E081509040A040E1F700C000000E9461
:100160007F008FE59AEEA0E081509040A040E1F73B
:1001700000C000000E9467008FE39DE0A3E0815073
:100180009040A040E1F700C000000E947F008FE592
:100190009AEEA0E081509040A040E1F700C000003E
:1001A0000E946B008FE39DE0A3E081509040A0404F
:1001B000E1F700C000000E947F008FE59AEEA0E00A
:1001C00081509040A040E1F700C000000E946F0005
:1001D0008FE39DE0A3E081509040A040E1F700C094
:1001E00000000E947F008FE59AEEA0E081509040D1
:1001F000A040E1F700C000000E9473008FE39DE083
:10020000A3E081509040A040E1F700C000000E94B0
:100210007F008FE59AEEA0E081509040A040E1F78A
:1002200000C000000E9477008FE39DE0A3E08150B2
:100230009040A040E1F700C000000E947F008FE5E1
:100240009AEEA0E081509040A040E1F700C000008D
:100250000E947B008FE39DE0A3E081509040A0408E
:10026000E1F700C000000E947F008FE59AEEA0E059
:1002700081509040A040E1F700C000004FCFF894BB
:02028000FFCFAE
:00000001FF
